:100000000C9430070C9458070C9458070C9458071C
:100010000C9458070C9458070C9458070C945807E4
:100020000C9458070C9458070C94EA0E0C94590F32
:100030000C9458070C9458070C9458070C945807C4
:100040000C9458070C9458070C9458070C945807B4
:100050000C9458070C9458070C9458070C948B1167
:100060000C9458070C9458070C9458070C94580794
:100070000C9458070C9458070C9458070C94580784
:100080000C9458070C9458070C9458070C94580774
:100090000C9458070C9458070C9458070C94580764
:1000A0000C9458070C9458070C9458070000000053
:1000B000003E5B4F5B3E3E6B4F6B3E1C3E7C3E1CEE
:1000C000183C7E3C181C577D571C1C5E7F5E1C0034
:1000D000183C1800FFE7C3E7FF0018241800FFE7EB
:1000E000DBE7FF30483A060E2629792926407F05AE
:1000F0000507407F05253F5A3CE73C5A7F3E1C1CC4
:1001000008081C1C3E7F14227F22145F5F005F5F83
:1001100006097F017F006689956A6060606060946F
:10012000A2FFA29408047E040810207E2010080874
:100130002A1C08081C2A08081E101010100C1E0C7F
:100140001E0C30383E3830060E3E0E060000000011
:100150000000005F00000007000700147F147F14F8
:10016000242A7F2A1223130864623649562050003D
:1001700008070300001C2241000041221C002A1C29
:100180007F1C2A08083E0808008070300008080814
:100190000808000060600020100804023E51494534
:1001A0003E00427F400072494949462141494D3352
:1001B0001814127F1027454545393C4A49493141B9
:1001C000211109073649494936464949291E000087
:1001D00014000000403400000008142241141414DC
:1001E0001414004122140802015909063E415D59C8
:1001F0004E7C1211127C7F494949363E41414122D1
:100200007F4141413E7F494949417F090909013EFA
:10021000414151737F0808087F00417F4100204021
:10022000413F017F081422417F404040407F021C33
:10023000027F7F0408107F3E4141413E7F0909094A
:10024000063E4151215E7F09192946264949493216
:1002500003017F01033F4040403F1F2040201F3FDC
:100260004038403F63140814630304780403615961
:10027000494D43007F4141410204081020004141A3
:10028000417F04020102044040404040000307084F
:100290000020545478407F2844443838444444284B
:1002A000384444287F385454541800087E090218F2
:1002B000A4A49C787F0804047800447D400020407A
:1002C000403D007F1028440000417F40007C0478BE
:1002D00004787C080404783844444438FC18242406
:1002E0001818242418FC7C08040408485454542486
:1002F00004043F44243C4040207C1C2040201C3C03
:100300004030403C44281028444C9090907C4464F9
:10031000544C44000836410000007700000041368C
:10032000080002010204023C2623263C1EA1A16112
:10033000123A4040207A3854545559215555794144
:100340002154547841215554784020545579400C1B
:100350001E527212395555555939545454593955FC
:100360005454580000457C410002457D420001453F
:100370007C40F0292429F0F0282528F07C545545AC
:10038000002054547C547C0A097F4932494949323F
:100390003248484832324A4848303A4141217A3A54
:1003A00042402078009DA0A07D39444444393D401E
:1003B00040403D3C24FF2424487E4943662B2FFCCB
:1003C0002F2BFF0929F620C0887E09032054547979
:1003D000410000447D413048484A32384040227A4A
:1003E000007A0A0A727D0D19317D2629292F2826C7
:1003F0002929292630484D402038080808080808CF
:100400000808382F10C8ACBA2F102834FA00007B27
:10041000000008142A142222142A1408950022002D
:1004200095AA005500AAAA55AA55AA000000FF00E7
:10043000101010FF00141414FF001010FF00FF1024
:1004400010F010F0141414FC001414F700FF000056
:10045000FF00FF1414F404FC141417101F10101FD5
:10046000101F1414141F00101010F0000000001FC3
:10047000101010101F10101010F010000000FF10CE
:100480001010101010101010FF10000000FF1400CA
:1004900000FF00FF00001F10170000FC04F41414FC
:1004A0001710171414F404F40000FF00F7141414C8
:1004B00014141414F700F7141414171410101F1048
:1004C0001F141414F4141010F010F000001F101F6B
:1004D0000000001F14000000FC140000F010F010D9
:1004E00010FF10FF141414FF141010101F00000050
:1004F00000F010FFFFFFFFFFF0F0F0F0F0FFFFFF54
:100500000000000000FFFF0F0F0F0F0F38444438AA
:10051000447C2A2A3E147E02020606027E027E02E5
:1005200063554941633844443C04407E201E200604
:10053000027E020299A5E7A5991C2A492A1C4C7241
:1005400001724C304A4D4D303048784830BC625AC8
:10055000463D3E494949007E0101017E2A2A2A2A58
:100560002A44445F444440514A444040444A514034
:100570000000FF0103E080FF000008086B6B0836F5
:1005800012362436060F090F060000181800000066
:100590001010003040FF0101001F01011E00191D55
:1005A0001712003C3C3C3C0000000000F0F89C8E20
:1005B0008783878E9CF8F00000FEFF03030303038C
:1005C000070EFCF80000FEFF0303030303070EFC05
:1005D000F80000FFFF00000000000000FFFF000027
:1005E000FEFF8383838383C7EE7C380000F8FC0E14
:1005F00007030303070EFCF800003F7FE0C0808084
:10060000C0E07F3FFFFF01010101010101FFFF0089
:1006100000FFFF0C0C0C0C1C3E77E3C100007FFFB9
:10062000C0C0C0C0C0E0703F1F00001F3F70E0C0EE
:10063000C0C0E0703F1F00007FFFC1C1C1C1C1E366
:10064000773E1C00001F3F70E0C0C0C0E0703F1F3D
:10065000000000000001FFFF01000000D5F08D1434
:10066000A1C881CFD9F1AF20007F3F90AA643A9D05
:10067000AE643A9D56329DAE64252B994E2B994E11
:1006800057B292954CA715E6ECE974E7CA9D4EA7C0
:10069000EDE974D557A54AA974DA9E4E57A5AA521A
:1006A000E54EA7EDE97429954A953B9DB698B3A709
:1006B0005BDDB9CE75AEABBBBA739DEBEAAEEE5C5B
:1006C0002AD5D595ECEA542A9D4EE73A954AA53AA3
:1006D000D7D59D4BA552A95CA7D316DEF232DD5DBE
:1006E000254B5625D3ED653AA5AAAA2A555532DDE4
:1006F0005EA65355555525AB64BA3DDEFCE96495BD
:10070000AAAAAAAA3E9DF4A79355B2AAAAAA4F27BD
:10071000FDE96455AAAA54B54B27FDE974B9ABAA03
:10072000CA9D4E7ABC79EF89FEFFFAFFEBFFAFFF5F
:10073000BFFE2A59BA64E9B2B1E9B25555D5F5B947
:10074000B3E72A55D5A9AC27F2F09697E95E55A5EF
:100750004A56C9747B99EEABAAAA2A5525D3ED65F2
:10076000BA5DA9AA942A9D6E8F377F3A59A5AAAA85
:10077000AA72A793FE74C99255B24A963BE94FA755
:100780004B962E773AE94F972C5955AAAA5429959A
:10079000F478F35EEADC755D2A554AE52E77A954B4
:1007A0002995BB5455B25255C9EA53D72E2555BA8F
:1007B0008A4857A5525569267A0F6F599D4EA754FE
:1007C0009D4BA7DBEA74BB5255ED4AA7DBEA743AAE
:1007D0009D4EA7DB62CE9F2E59B2AAAAAA52E54E21
:1007E000FA9355EE6495AA5255E54EFAD3254B97E8
:1007F000AAAA52559FF4272B9DAC64252B9DF47813
:10080000F384A9545555AA7DA9545555AA7DA954D8
:10081000AA2A15A3D7552959A5522959A5730E7788
:100820001EDE563A59E964252B59E9A4D2C94AA7D4
:10083000D3C94AE79CFA5455EA7397AC64A5934A26
:10084000A7D3E9743A9D54C8533A9D4EA793954E49
:10085000A793954EA7D3E9743A9D4EA7D3E9743A6E
:100860009D4EA7D3E9A482C8DC369D534A6ED3E9D6
:10087000F43A242595534E39E576CA29A5BA9DA2A6
:100880004CA7C3F24EB9E572B9CD66774A29A56087
:10089000C0EC5239A7E8D23BA9EC3A9831ADA47329
:1008A000D2496795948A2E9D549356DBE5721BB707
:1008B0005252B97A15F95239E5945C6EB7E9B452DF
:1008C000444EB9E572B9DC46BA73CAB94B7D2A9574
:1008D000EA55E79C1C71E9ED6CDB6D74E96D889558
:1008E0004A2A0939A6D7DB753A9DCEAE9C5372BB16
:1008F0004DA7B74A3ABB4E6797DBEC5649E79CCE0B
:100900006EB3DBEC564965D7E97476B9DD6E955563
:100910003A9DDD66975B25955576BB4EA7B3DBEC1C
:10092000721B8EB25F6E25CBD975746D753ABB5450
:100930003027320F28E536A59C4CAFE3DCB995DBB8
:100940002975BD9B2B1B1A776EE5764A5DEF869164
:10095000D66B259D3AAB9CCD2E7776F525D3D9E580
:100960004E39E9B3CBE5D2A9BF5DE5EE5F2AFBEADC
:1009700092D9E54E39F9D575577D7F36D654EA962A
:10098000C95BA5A2923A1D080B00020202000009F1
:1009900004000001020200000524001001052401EA
:1009A0000101042402060524060001070581031045
:1009B000004009040100020A00000007050202408D
:1009C000000007058302400000040309041201002F
:1009D00002EF020140412336800001010203014180
:1009E000726475696E6F204C4C4300417264756986
:1009F0006E6F204C656F6E6172646F0010100000A6
:100A000080C0E0F0F8FCF8F0E0C0800000000000DA
:100A1000000000007F7F7F00000000000000FC025B
:100A20000101012111F9010101010102FC001F2056
:100A300040404048484F4848404040201F00FC028A
:100A4000010121110909895121010102FC001F2026
:100A50004040484C4A494848484040201F00FC025A
:100A6000010111090989899161010102FC001F201E
:100A70004040444848484844434040201F00FC024E
:100A80000101F981818181F901010102FC001F202E
:100A9000404040404040404F404040201F00FC024A
:100AA000010179494989890901010102FC001F20DE
:100AB0004040484848444443404040201F00FC0216
:100AC0000101E1918989898911010102FC001F203E
:100AD0004040434448484844434040201F00FC02F3
:100AE000010109090989691901010102FC001F209E
:100AF0004040404846414040404040201F00FC02EA
:100B0000010171898989898971010102FC001F2015
:100B10004040474848484848474040201F00FC02A2
:100B20000101619189898991E1010102FC001F2085
:100B30004040444848484844434040201F00FC028D
:100B400011F90101E11109090911E102FC001F205D
:100B5000484F484043444848484443201F00FC0253
:100B60002111F90101012111F9010102FC001F20ED
:100B700048484F48484048484F4848201F00FC021A
:100B800011F901012111090989512102FC001F20DD
:100B9000484F4840484C4A49484848201F00FC02FA
:100BA00011F901011109098989916102FC001F20D5
:100BB000484F484044484848484443201F00FC02EE
:100BC00011F90101F981818181F90102FC001F20E5
:100BD000484F484040404040404F40201F00FC02EA
:100BE00011F901017949498989090102FC001F2095
:100BF000484F484048484844444340201F000000B4
:100C000000000000000000000000000000000000E4
:100C10000000000000000000000000000000FF01D4
:100C2000FDFDFD3DBDBDBDBDBDBDBDBDBDBDFF002F
:100C3000FFFFFF00FFC7C7C7383838C7C7C7BDBDEC
:100C4000BDBDBDBDBDBDBDBD7D3D9DCD9D3D38384E
:100C500038C7C7C73838F8BF5C4B5656564B7DFD72
:100C6000FDFDFDFDFDFDFDFDFDFDFDFD7D3D5CBFD3
:100C7000FFFFFF0F87B7337B79CDCCFEFE493D7D6B
:100C8000FDFDFDFDFDFDFDFDFDFDFDFD01FF49FE41
:100C9000FECCCD797B33B7870FFFFFFF00FFFF004E
:100CA000FFFFFF00FF7171718E8E8E717171FF00F9
:100CB000FFFFFF00FF1C1C1CE3E3E31C1C1C8E8ECB
:100CC0008E7171718E8E8EFFFF00FFFFFF00E3E3D8
:100CD000E31C1C1CF39B6F635D5A5B5B5B5AFFFF5D
:100CE000FFFFFF00FFFF9933FE66CCFDF9025D6355
:100CF0006F9FFFFEFCFDF9FBF306F497B71002F9B6
:100D0000FDFCFE9ECFFFFFFF00FFFFFF00FFF0F79F
:100D1000F7F7F7F3F301FDFCFEFFFFFF00FFFF0015
:100D2000FFFFFF7C3DBD3D7DFD1DFDFDFDFDFF0089
:100D3000FFFFEFAC69EB69ACEF00EFAF6FEFFDFDCC
:100D4000FD1DFDFDFDFDFDFDFDFDFDFDFDFD6FAF8F
:100D5000EF00EFEFEFEFEFEFEFFFFF07F737FCFFED
:100D6000FFFF0FEF6F2FEFEFEF00FFFFFFFE573793
:100D7000F7F700FFFDFCFDE7C3603BFBFB03F3E17E
:100D8000F39FBF1FFF00FFFFFFFFFFFF00FFFBFB05
:100D9000FBFBFBFAFBF8FFFFFFFFFFFF00FFFF007D
:100DA000FFFFEF6B2DAE2D6BEF00EF6B2DAEFF80D5
:100DB000BFBFBFBCB9BBB9BCBFB0BFBCB9BB2D6B5B
:100DC000EF00EFAF6FEF6FAFEFFFFF00FFFEB9BCBB
:100DD000BFB0BFBBBDBEBDBBBFBFBFB8BBBBFFFECF
:100DE000F3E1F0375737F707F7F5F4F5F7F0BBBB4A
:100DF000BBBBBBBABBBABBB8BFBFBFBFBFBF0000A6
:100E000000000000000000000000000000000000E2
:100E10000000000000000000000000000000040EC0
:100E2000150404000404150E040000000000000076
:100E30000000000000000000000000000000E0E0F2
:100E4000C08040700C02625C4040404040807F7F28
:100E50003F1020204040404055555555350A081256
:100E600011241FBECFEFDAE0DEBFCDBF11E0A0E05E
:100E7000B1E0E4E9F2E302C005900D92A638B107B3
:100E8000D9F726E0A6E8B1E001C01D92A334B2076D
:100E9000E1F717E0C0E3D7E004C02197FE010E940C
:100EA0002E19CF32D107C9F70E9425120C94481988
:100EB0000C940000EFEEF1E0A0E0B8E000800EBC82
:100EC0008111012C1197A0FDFDCF0192B9F70DB44E
:100ED00008954F925F926F927F928F929F92AF92FE
:100EE000BF92CF92DF92EF92FF920F931F93CF9317
:100EF000DF93DC01ECEFF9E09491EDEFF9E0249160
:100F0000E92EF12C442309F49BC0C1E0D0E0822FEC
:100F1000877011F4D0E0C0E0E22FE695E695E69503
:100F2000EC0FFD2FF11DEE9DE001EF9DD00DFE9D1C
:100F3000D00D11244C9FF0014D9FF00D1124AF01F5
:100F40004250564FF701EA0FFB1F309709F481C05A
:100F5000A038B1050CF07DC0EB01C20FD11DCD2B27
:100F600009F477C0603471050CF073C04115510568
:100F700009F46FC0862F8770782E33E075956795DA
:100F80003A95E1F7362FE038F10514F090E89A1B16
:100F9000E1E0822F877009F4E0E0269526952695FA
:100FA0002E0FFB01E20FF11D399714F028E0261BEC
:100FB000EB01D695DC2FCC27D795C795CA0FDB1F41
:100FC000A72C072C000CBB08AFEFB0E0072C02C029
:100FD000AA0FBB1F0A94E2F7A095B0956B2E832F42
:100FE000861B8217B0F58E0101511E4FD12CC12CEA
:100FF000C91648F5FA01EC0DFD1DE491F0E02F0152
:101000000A2C02C0440C551C0A94E2F737FD05C0B7
:10101000F80180818A2384298083772059F0373032
:101020004CF44801F0E88F0E911CF4018081862178
:1010300085298083FFEFCF1ADF0A0F5F1F4FD8CFBC
:101040004EEF59E07FCF4E0D5F1DC058DF4F3F5F21
:10105000C6CFDF91CF911F910F91FF90EF90DF905E
:10106000CF90BF90AF909F908F907F906F905F9048
:101070004F900895FC018091EE01882311F13FB754
:10108000F89482E08093E9002091F200822F90E0B2
:101090001816190614F481E090E0882339F0289896
:1010A00044E64093ED014091F1004083222339F062
:1010B0002091F200211103C02BE62093E8003FBFEE
:1010C00008958FEF9FEF08952FB7F89483E08093F2
:1010D000E9009091E800892F807295FF04C09091FB
:1010E000F20080E4891B2FBF08958091E5018111F2
:1010F0000DC082E08093E10184E08093E2011092D0
:10110000E4011092E30181E08093E50181EE91E03A
:101110000895CF93DF931F92CDB7DEB76983DC01CB
:10112000ED91FC910280F381E02D41E050E0BE01A1
:101130006F5F7F4F09950F90DF91CF91089583E006
:101140008093E9008091F200882319F08AE380936C
:10115000E80008950E94640890E00895CF93DF931B
:101160001F92CDB7DEB7FC018485958597FD08C039
:101170002FEF3FEF358724870F90DF91CF910895B0
:10118000CE0101960E943A08019719F4898190E0F6
:10119000F3CF8FEF9FEFF0CF0F931F93CF93DF939A
:1011A0001F92CDB7DEB78C01FC018485958597FF32
:1011B0000BC0CE0101960E943A08019771F4898113
:1011C00090E0F80195878487F801848595850F90D4
:1011D000DF91CF911F910F9108958FEF9FEFF1CF86
:1011E000FC018485958597FD0BC09FB7F89482E03C
:1011F0008093E9008091F2009FBF90E001960895EE
:101200009FB7F89482E08093E9008091F2009FBF3D
:1012100090E008954091DB015091DC012091D901CB
:101220003091DA0142175307B4F49091E8009570B9
:10123000E1F39091E80092FD19C08093F100809154
:10124000DB019091DC0101968F739927892B19F4AA
:101250008EEF8093E8008091DB019091DC01019694
:101260009093DC018093DB0181E0089580E0089594
:10127000DF92EF92FF920F931F93CF93DF93D82EBD
:101280008A01EB017B01E40EF51ECE15DF0559F056
:10129000D7FE12C0FE0184910E940A092196811195
:1012A000F4CF0FEF1FEFC801DF91CF911F910F9186
:1012B000FF90EF90DF9008958881EECF0F931F93FA
:1012C000CF93DF931F92CDB7DEB782E0898342E4EC
:1012D00050E067E879E080E80E9438090E947508CC
:1012E000DC0112960D911C910115110589F0D801B0
:1012F000ED91FC910280F381E02DBE016F5F7F4F85
:10130000C801099597FD04C0F80100851185ECCF4F
:1013100089810F90DF91CF911F910F9108956150B6
:1013200030F02091F100FC0120830196F8CF28983D
:1013300084E68093ED010895AF92BF92CF92DF9241
:10134000EF92FF920F931F93CF93DF936C017B017A
:101350008B01040F151FEB015E01AE18BF08C0170B
:10136000D10759F06991D601ED91FC910190F0817E
:10137000E02DC6010995892B79F7C501DF91CF9141
:101380001F910F91FF90EF90DF90CF90BF90AF90A3
:1013900008953FB7F8948091970190919801A0919A
:1013A0009901B0919A0126B5A89B05C02F3F19F06D
:1013B0000196A11DB11D3FBFBA2FA92F982F8827D5
:1013C000BC01CD01620F711D811D911D42E0660FB0
:1013D000771F881F991F4A95D1F708958F929F9282
:1013E000AF92BF92CF92DF92EF92FF926B017C019E
:1013F0000E94C9094B015C01C114D104E104F1044C
:10140000B9F00E94C909681979098A099B09683EDF
:1014100073408105910580F321E0C21AD108E108EB
:10142000F10888EE880E83E0981EA11CB11CE4CF61
:10143000FF90EF90DF90CF90BF90AF909F908F90F4
:1014400008958F929F92AF92BF92CF92DF92EF92C8
:10145000FF920F931F93CF93DF936C017B018A015F
:1014600080910B01882309F45CC08091EE018823F0
:1014700009F457C08091E00180FF05C08091E00031
:1014800082608093E000E801B12C8AEFA82E93E0FF
:10149000892E2AE3922E209711F4BB20D9F10E94C5
:1014A000640881110AC0AA94AA20D9F161E070E011
:1014B00080E090E00E94EE09EECF8C171D0611F03F
:1014C0000CF08C2F9FB7F8948092E9002091E800EF
:1014D00025FD02C09FBFDFCF282F30E0C21BD30BFA
:1014E000F701815020F041914093F100FACFE20ED4
:1014F000F31EBB2021F09092E800B12CEBCF80913D
:10150000E80085FDE7CF9092E800BB24B3942097D4
:1015100009F3F3CF5D9884E68093DF01101611067E
:101520003CF081E090E0F6019383828310E000E0DC
:10153000C801DF91CF911F910F91FF90EF90DF9045
:10154000CF90BF90AF909F908F9008952FB7F89451
:101550006091930170919401809195019091960111
:101560002FBF08952D9A0895BC0190E080E00C945F
:10157000EE098FB18095807F669B88601C9B84609C
:10158000089520E191E061FD94E060FD990F62FD16
:101590009295687F269FD0011124A80FA151BE4FBC
:1015A0008C9140FF03C0892B8C93089590958923DB
:1015B000FBCFAF92BF92CF92DF92EF92FF920F9349
:1015C0001F93CF93DF935B01EC016C01C40ED11C20
:1015D0008B01020F111DCC15DD05C4F47501C80186
:1015E0000134110514F080E490E0E816F90664F483
:1015F000C038D1052CF440E0B701CE010E94C10AE9
:101600008FEFE81AF80AEBCF2196E5CFDF91CF9163
:101610001F910F91FF90EF90DF90CF90BF90AF9010
:10162000089580E0EFEEF1E081118FEF00248193C7
:101630008193819381930394D1F710929C0110922E
:101640009B0110929E0110929D0108958F929F928E
:10165000AF92BF92CF92DF92EF92FF920F931F93C0
:10166000CF93DF936D3089F0C0909B01D0909C01A7
:101670006A30D1F410929E0110929D0188E0C80E4C
:10168000D11CD0929C01C0929B0181E090E0DF913F
:10169000CF911F910F91FF90EF90DF90CF90BF906F
:1016A000AF909F908F90089500919D0110919E01A1
:1016B000E5E06E9FE0011124C455DF4F5801F12C85
:1016C000F5E0E12CFF1629F0CE010196FE01E49031
:1016D000EC01912C812CF0E8AF16B10458F4B6015E
:1016E000680D791D6034710528F44E2D4170C501D7
:1016F0000E94C10AE6948FEF881A980AE8E08E16D5
:10170000910449F7F394FFEFAF1ABF0A86E0F8128D
:10171000D7CF0A5F1F4F10939E0100939D01B5CF55
:10172000CF93C82F0E94B90A982F9C2381E09C1365
:1017300080E0CF91089580E00C945A071F93CF93D7
:10174000DF93DC0130E020E050E040E011E0C1E058
:10175000D0E02617370791F114968C9114978111D8
:1017600015C014961C93149712968D919C91139703
:10177000ED91FC911197E80FF91FE4911596EC9308
:101780001597019613969C938E93129714969C919D
:10179000149715968C911597892349F0FE01022E16
:1017A00002C0EE0FFF1F0A94E2F74E2B5F2B990F3A
:1017B00014969C9314972F5F3F4FCBCFCA01DF91B4
:1017C000CF911F9108952F923F924F925F926F9207
:1017D0007F928F929F92AF92BF92CF92DF92EF92C1
:1017E000FF920F931F93CF93DF93CDB7DEB72B9765
:1017F0000FB6F894DEBF0FBECDBF5C016B015A83FC
:1018000049831C821B821D821E8268E070E0CE012B
:1018100001960E949E0B01961C0168E070E0CE01CB
:1018200001960E949E0B8C0161E070E0CE01019652
:101830000E949E0B91012A0D3B1D121613060CF0FF
:10184000A4C098012F5F3F4FA9014C0D5D1D1416D8
:1018500015060CF09AC0390137FF04C0380178E052
:10186000670E711C43E0759467944A95E1F7277001
:101870003327232B19F09FEF691A790A8B874424A9
:101880004394512C10E000E0F12CE12C88E090E032
:101890009C012C193D093A872987E614F7040CF0BE
:1018A00074C088248394912C61E070E0CE0101968D
:1018B0000E949E0B892B21F432E0830E911CF4CF01
:1018C000B401CE0101960E949E0B01964C0150E09E
:1018D00040E04815590508F053C07B857111542824
:1018E000642D660F09F049C0D7011196A930B105E2
:1018F000A0F5C501800F911F8038910570F5C701D3
:101900009695982F8827979587958A0D9B1D800F10
:10191000911F252D30E0FC01E151FE4F29010C2CD7
:1019200002C0440C551C0A94E2F758864F8270811D
:1019300074297083C114D10481F077E0E716F104B3
:1019400061F0FC01E159FD4F098402C035952795EE
:101950000A94E2F75080252920830F5F1F4F44240B
:101960004394021513052CF07D014424439410E0A8
:1019700000E04F5F5F4F562EACCF462E652DF9CF5E
:101980008B8591E089278B8788CF2B960FB6F894AB
:10199000DEBF0FBECDBFDF91CF911F910F91FF90A2
:1019A000EF90DF90CF90BF90AF909F908F907F90FF
:1019B0006F905F904F903F902F9008957F928F92FD
:1019C0009F92AF92BF92CF92DF92EF92FF920F93CE
:1019D0001F93CF93DF939090CD0180E020E4822E7F
:1019E000911003C088E099E4892E10E0E82EF12CD4
:1019F0007090CE01171510F5C12FD0E05E0184E084
:101A0000AA0CBB1C8A95E1F7AE0CBF1CC82CD12CCC
:101A1000C755DE4F00E0701679F04F8182E09812D2
:101A200001C0405FB501C6010E9469070F5F80E1F8
:101A3000C80ED11C2696EFCF1F5FDACFDF91CF9172
:101A40001F910F91FF90EF90DF90CF90BF90AF90DC
:101A50009F908F907F900C949B0B813089F4909194
:101A6000A701E091A80126E0E29FF0011124E755CB
:101A7000FE4FE90FF11D81819F5F811131C00895F3
:101A80008230D9F49091A801292F2150330BA9015C
:101A9000E091A70186E0849F9001859F300D11247D
:101AA00027553E4FE20FF32FF11D8081882339F334
:101AB00091509093A80181E008958330A1F4909112
:101AC000A701E091A80136E0E39FF0011124E7555A
:101AD000FE4FE90FF11D31978081882381F29150EB
:101AE0009093A701E8CF8430C1F49091A801492FC9
:101AF00050E04F5F5F4FE091A70186E0849F900127
:101B0000859F300D112427553E4FE20FF32FF11D15
:101B100080819F5F8111CDCFB2CF80E0B0CF08959B
:101B200090E080E00895FC0101900020E9F73197F2
:101B3000AF01481B590BBC018FE396E00C949C0944
:101B4000CF93DF930E94930DEC0188E391E00E9414
:101B5000930D8C0F9D1FDF91CF9108958F929F92CF
:101B6000AF92BF92CF92DF92EF92FF920F931F93AB
:101B7000CF93DF93CDB7DEB7A1970FB6F894DEBF52
:101B80000FBECDBF6C01990FEE08FF08F7FE41C0F4
:101B90006DE28FE396E00E94260B8C01222733270B
:101BA000A9012C193D094E095F0919A2CE018196A0
:101BB0007C019AE0892E912CA12CB12CCA01B9018B
:101BC000A50194010E94E918605DF70162937F010D
:101BD000211531054105510589F790E080E03097E6
:101BE00019F0CF010E94930D800F911FA1960FB69F
:101BF000F894DEBF0FBECDBFDF91CF911F910F9143
:101C0000FF90EF90DF90CF90BF90AF909F908F901C
:101C10000895A701960119A28E010F5D1F4F8AE05A
:101C2000C82ED12CE12CF12CCA01B901A7019601D3
:101C30000E94E918605DF80162938F01211531055A
:101C40004105510589F790E080E0309779F2CF01A6
:101C50000E94930DCBCF0F931F938091D001909151
:101C6000D1010196D1F40E94A60A60938E0170936F
:101C70008F018093900190939101685E7340810978
:101C8000910960938A0170938B0180938C019093EA
:101C90008D011092D1011092D0010E94A60A0091EC
:101CA0008A0110918B0120918C0130918D01085196
:101CB0001C4F2F4F3F4F061717072807390708F00B
:101CC00055C060938A0170938B0180938C0190932F
:101CD0008D0100918E0110918F0120919001309122
:101CE0009101601B710B820B930B28EE33E040E0F7
:101CF00050E00E94E9183093D1012093D001C9012E
:101D00006CE370E00E941A198B0170938901609353
:101D10008801909387018093860128E04FE168E174
:101D200070E08EE190E00E94D90A8EE190E09093FD
:101D30009E0180939D0188E190E090939C018093A7
:101D40009B01C8010E94AE0D809186019091870190
:101D50000A97DCF58BE391E00E94930D8091860158
:101D6000909187010E94AE0D0E949B0B0091D401BF
:101D70001091D5018091D2019091D30108171907D4
:101D800009F128E048E162E270E084E290E00E941C
:101D9000D90A84E290E090939E0180939D0182E2B3
:101DA00090E090939C0180939B01C8010E94AE0D2E
:101DB0000E949B0B8091D4019091D5019093D30107
:101DC0008093D2011F910F9108958EE391E0C4CFCB
:101DD0000C94A1181F920F920FB60F9211248F939B
:101DE0009F938091E1009091E100937F9093E100B7
:101DF00083FF0FC01092E90091E09093EB001092E6
:101E0000EC0092E39093ED001092EE0198E0909335
:101E1000F00082FF22C093E09093E9009091F200DD
:101E2000992319F09AE39093E8009091DF019923A8
:101E300041F09091DF0191509093DF01911101C029
:101E40005D9A9091ED01992341F09091ED019150AF
:101E50009093ED01911101C0289A84FF18C08091E0
:101E6000E2008E7E81608093E2008091E1008F7EAF
:101E70008093E1008091E0018E7E80618093E0019B
:101E80009F918F910F900FBE0F901F90189580FF1C
:101E9000F7CF8091E2008E7E80618093E200809196
:101EA000E1008E7E8093E1008091E0018E7E816072
:101EB000E5CF1F920F920FB60F921124CF92DF92AF
:101EC000EF92FF920F931F932F933F934F935F9344
:101ED0006F937F938F939F93AF93BF93EF93FF93F2
:101EE000CF93DF93CDB7DEB76C97DEBFCDBF109237
:101EF000E9008091E80083FF25C068E0CE014596A7
:101F00000E948F0982EF8093E8008D8987FF39C096
:101F10009091E80090FFFCCF982F907609F034C1A3
:101F20009E894F89588D2F89F88C911131C0803846
:101F300061F58091DE018093F1001092F1008EEF47
:101F40008093E8006C960FB6F894DEBF0FBECDBF4D
:101F5000DF91CF91FF91EF91BF91AF919F918F91C1
:101F60007F916F915F914F913F912F911F910F91B1
:101F7000FF90EF90DF90CF900F900FBE0F901F90CB
:101F800018959EEF9093E800C7CF1092F100D5CF3F
:101F9000913059F48111D3CF4130510581F68091B0
:101FA000DE018D7F8093DE01CACF933049F4811129
:101FB000C6CF4130510519F68091DE018260F2CF23
:101FC000953041F48091E80080FFFCCF2068209399
:101FD000E300B5CF963009F0A9C00B8D1C8D22E02F
:101FE0001092E9001092DC011092DB01F2122EC077
:101FF0001092DA011092D9010E945E091F8299E0C5
:102000009983FA8291E09E8390EA98879AEF998764
:102010002091DB013091DC01275F3F4F3C832B8314
:102020008D831092E9001092DC011092DB01109375
:10203000DA010093D90149E050E0BE016F5F7F4FA4
:1020400080E00E9438090E945E0979CF1093DA017E
:102050000093D9010E947508DC0112960D911C9124
:102060000115110509F451C1D801ED91FC910480CD
:10207000F581E02DBE016B5E7F4FC8010995009789
:1020800009F03EC1F80100851185EACFF3E0FF12A7
:102090000EC08F89882309F440C0823061F440E883
:1020A00060E18BEE99E00E94D511811148CF81E269
:1020B0008093EB0047CF813029F440E86BE08FED4F
:1020C00099E0F1CF833099F70E947508DC011296F0
:1020D000ED90FC908E010F5F1F4F6801E114F10439
:1020E00079F0D701ED91FC910680F781E02DB801E0
:1020F000C7010995080F111DF701E084F184EECFA7
:10210000D8011C92F60101900020E9F73197BF0138
:102110006C197D0940E0C601C6CF69EC79E0FB018E
:10212000449150E080E80E94380909CF973009F4C3
:10213000BECF983021F481E08093F10000CF993038
:1021400009F0FDCE837009F0B2CFE4E1F1E081E067
:1021500031E096E32191222371F08093E9003093DE
:10216000EB00DF0111972C912093EC009093ED0090
:102170008F5F873079F78EE78093EA001092EA004C
:102180008F898093EE01DBCE8B8D9C8D1092E900C0
:102190001092DC011092DB019093DA018093D90157
:1021A000898D811192C08E899D89913A49F481323D
:1021B00009F07DCF47E050E064E071E080E0B3CF0C
:1021C000913209F074CF833269F48F89988DB0E031
:1021D000A0E08093000190930101A0930201B093CD
:1021E0000301ADCE803269F48091E80082FFFCCF1C
:1021F00067E084E091E00E948F098BEF8093E80014
:102200009ECE823209F09BCE8F8980930B01EEEF38
:10221000FFE7859194918B3F9C4D51F1E0E0F8E010
:102220008091040190910501A0910601B0910701F0
:10223000803B9440A105B105F1F480910B0180FD34
:102240001AC0EE3F8AE0F80789F587E797E79183A0
:102250008083809160008093DD0188E19BE00FB670
:10226000F894A895809360000FBE9093600067CEAD
:10227000EEEFFAE0D5CF808191818737974709F05B
:102280005ECEA89580916000886180936000809107
:10229000DD0180936000EE3F2AE0F20789F0809133
:1022A000FE0A9091FF0A9183808349CE80819181BB
:1022B0008737980751F29093FF0A8093FE0AC5CFA3
:1022C0001092FF0A1092FE0A3ACE0E947508DC01B5
:1022D00012960D911C910115110509F4E8CED80153
:1022E000ED91FC910190F081E02DBE016B5E7F4F7E
:1022F000C8010995811123CEF80100851185EBCF26
:10230000181619060CF41BCED2CEF1E0FF12BECE89
:102310006DEC79E004CF1F920F920FB60F9211244B
:102320002F933F938F939F93AF93BF93809193018C
:1023300090919401A0919501B091960130919201F4
:1023400023E0230F2D3758F50196A11DB11D2093D1
:1023500092018093930190939401A0939501B0937F
:1023600096018091970190919801A0919901B09167
:102370009A010196A11DB11D809397019093980138
:10238000A0939901B0939A01BF91AF919F918F91C2
:102390003F912F910F900FBE0F901F90189526E838
:1023A000230F0296A11DB11DD2CFEF92FF920F9382
:1023B0001F93CF93DF93F82E192FE62E042F81E081
:1023C000860F880F0E940A0983E00E940A09CF2D18
:1023D000D12FEC0EFD2EF11CCE15DF05B9F007FF55
:1023E00013C0FE0184910E940A09182F80E00E9408
:1023F0000A09812321968111EFCFDF91CF911F919F
:102400000F91FF90EF9008958881EDCF81E0F5CF97
:10241000EFEEF5E01382128288EE93E0A0E0B0E0E8
:1024200084839583A683B7838EE191E09183808333
:102430008FEF9FEF95878487EFE3F6E01382128298
:1024400080E391E0918380830895789484B58260DD
:1024500084BD84B5816084BD85B5826085BD85B548
:10246000816085BD80916E00816080936E001092C6
:102470008100809181008260809381008091810041
:1024800081608093810080918000816080938000D2
:102490008091910082608093910080919100816091
:1024A0008093910080919000816080939000809152
:1024B000C10084608093C1008091C10082608093DC
:1024C000C1008091C10081608093C1008091C300F0
:1024D00081608093C3008091C00082608093C000BF
:1024E0008091C20081608093C20080917A008460F4
:1024F00080937A0080917A00826080937A00809144
:102500007A00816080937A0080917A00806880935D
:102510007A001092EE011092DE011092E00180919B
:10252000D70081608093D70080EA8093D80089B576
:10253000806189BD89B5826089BD09B400FEFDCF87
:1025400061E070E080E090E00E94EE098091D800A8
:102550008F7C80618093D8008091E000807F8093A1
:10256000E0008091E1008E7E8093E1008DE0809319
:10257000E200559A209A81EC80937C0085B1806FAF
:1025800085B984B1877E84B984B1876E84B95E9A37
:102590005F988AB1806D8AB9769A6E9881B3806FA0
:1025A00081BB899880B38D7080BB80E58CBD81E054
:1025B0008DBD85E090E00E94B40A5F9A85E090E0CE
:1025C0000E94B40A5E985C98ECE5F6E084918EBDBA
:1025D00000000DB407FEFDCF319606E0E936F007A6
:1025E000A9F75C9A81E8809364008091650081601E
:1025F000809365000E949B0B80E80E94900B8823CB
:10260000A9F05C9885EA8EBD00000DB407FEFDCFF1
:102610005C9A2E982F982D98809164008062809308
:10262000640081E083BF889513BEFCCF84E00E94E4
:10263000900B882309F448C02D9884E80E94900BE1
:102640008823E1F00E94B20A88EC90E00E94B40A6C
:102650002F9882E090E00E94A1188F3F29F06FEF41
:1026600082E090E00E94A91884EF91E00E94B40AF1
:102670002F9A84E80E94900B8111FBCF84E10E9485
:10268000900B8823E1F00E94B20A88EC90E00E944F
:10269000B40A2E9882E090E00E94A118882329F0C5
:1026A00060E082E090E00E94A91884EF91E00E942F
:1026B000B40A2E9A84E10E94900B8111FBCF88EC22
:1026C00090E00E94B40AB2CF0E94B20A82E090E089
:1026D0000E94E80E882309F442C03E9A3F9A81E0A6
:1026E00090E00E94E80E182F1470712E81FF0FC029
:1026F00011112E98C1EFDFEF08E010E080E40E9496
:10270000900B882379F12E9A2F9A0E94B20A82E3C5
:1027100090E00E94B40A0E94B90A8111F8CF54E0F7
:10272000452E512C612C712C45E0E42EF12CE091CA
:10273000D701F091D801EC30F10508F0B7C3ED55A1
:10274000FC4E0C942E199214FE153816A316A816DA
:1027500013175E17A117AE176F14E417FA173E98F8
:102760003F98BDCF772029F0C430D10511F42E9ABF
:102770002F9881E00E945A079E01D7FF04C02227AC
:1027800033272C1B3D0B27703327CE01D7FD07962F
:1027900073E0959587957A95E1F7D7FF05C0019786
:1027A000A801421B530B9A01AC015695542F4427A4
:1027B0005795479541515E4FB0E0A0E02801421A7D
:1027C000530A8E3F6FEF960709F43BC07A0170E021
:1027D00060E0FD01E455FA4F5F014A01F0E88F0E19
:1027E000911C8F3F980779F0F501E60FF71FE491F0
:1027F000F0E06F01022E01C0CC0C0A94EAF7F70159
:10280000D488CD28C48A2115310599F0F501E60F49
:10281000F71FE4916401C60ED71EF0E01F01042CDF
:1028200002C0359427940A94E2F7F60164882628BA
:10283000248A6F5F7F4FFFEFEF1AFF0A683571053B
:1028400081F60196A85ABF4F40585F4FA03BB10593
:1028500009F0B7CF0E949B0B8FE090E00E94B40A72
:102860002196C931D10509F049CF772011F02F9A6F
:102870002D9880E991E00E94B40A0E94B20A81E09A
:1028800090E00E94E80E80FF42CF8AE090E00E9434
:10289000E80E9FEF980F9E3F08F039CF22E330E01B
:1028A00030939E0120939D0128E330E030939C01FA
:1028B00020939B01CBE0D0E0682F8FE396E00E944D
:1028C000260BCE010E94E80E2196C131D105A1F759
:1028D0000E949B0B88EE93E00E94B40A18CF60918F
:1028E000CE017091CD0151E081E091E0A6E0691741
:1028F00008F464C341E0292F30E0641708F45CC396
:10290000711103C0893009F480E1F901A49FE00D41
:10291000F11D1124E755FE4FE081E81350E08F5F71
:102920004F5FEBCF1092CD010E94110B49E656E0AC
:1029300070E060E090E080E00E94E30B0E949B0B5F
:102940000E94A60A60939F017093A0018093A10149
:102950009093A2014B015C010CED800E05E0901EEE
:10296000A11CB11C0E94A60A681579058A059B0561
:10297000C8F32CE140E864E270E090E080E00E945F
:10298000D90A41E268E370E090E080E00E946907C4
:102990008DE090E090939E0180939D01C7E3D0E08D
:1029A000D0939C01C0939B0180E491E00E94A00D14
:1029B00080E490E090939E0180939D01D0939C01D0
:1029C000C0939B0189E491E00E94A00D8DE590E009
:1029D00090939E0180939D01D0939C01C0939B0195
:1029E0008EE491E00E94A00DE091CD01F0E0E05F67
:1029F000FE4F808140E064E270E090E00E94690751
:102A00000E949B0B04E210E032E0D32E88E00E948B
:102A1000900B8111B0C084E00E94900B882309F4D0
:102A20004EC028E040E867E370E090E080E00E945C
:102A3000D90AF0929E01E0929D01C7E3D0E0D093C5
:102A40009C01C0939B0185E591E00E94A00D10932D
:102A50009E0100939D01D0939C01C0939B018BE547
:102A600091E00E94A00D24E430E030939E01209379
:102A70009D01D0939C01C0939B0181E691E00E944F
:102A8000A00D49E550E050939E0140939D01D093E5
:102A90009C01C0939B0182E591E00E94A00D88E615
:102AA00090E090939E0180939D01D0939C01C093F0
:102AB0009B0185E691E00E94A00D0E949B0B80E2A5
:102AC0000E94900B882329F1C091CD01EC2FF0E0FA
:102AD000E05FFE4F808140E164E270E090E00E94A0
:102AE0006907C15008F441C0C093CD01E091CD0108
:102AF000F0E0E05FFE4F808140E064E270E090E053
:102B00000E9469070E949B0B80E20E94900B81113A
:102B1000FBCF80E40E94900B882309F477CFC0910B
:102B2000CD01EC2FF0E0E05FFE4F808140E164E2F8
:102B300070E090E00E946907CF5FC330C9F0C09396
:102B4000CD01E091CD01F0E0E05FFE4F808140E0FB
:102B500064E270E090E00E9469070E949B0B80E4B1
:102B60000E94900B8111FBCF51CFD092CD01BECFEF
:102B70001092CD01E6CF8091CD0181113DC083E05F
:102B80008093CE0185E08093A401809164008E7FC4
:102B90008093640080917A00806480937A008091B1
:102BA0007A0086FDFCCFC0917800D09179000E9418
:102BB000C909AB01BC01CE01B0E0A0E0DC0199275E
:102BC00088278C019D01040F151F261F371FC9017F
:102BD000B8012091640021602093640061157105A3
:102BE0008105910511F00E94981881E090E0909382
:102BF000D8018093D7015AC184E0C2CFE9EAF1E05D
:102C0000119215821386118A178A158E11E0EF3AF8
:102C1000F107B1F76091CE015091CD0181E091E0D3
:102C200076E06917B8F041E0292F30E0641780F0B2
:102C3000F901749FE00DF11D1124E755FE4F8083CB
:102C40008F5F511103C0893009F480E14F5FEECFEF
:102C50009F5FE7CF83E0511184E08093A8018093C8
:102C6000A6018093A7018093A50182E090E0BFCFE9
:102C70000E94110B42E359E062E070E085E090E0D1
:102C80000E94E30BD0E0C0E041E0BE018DE390E0A4
:102C90000E94C10A2196C034D105B1F710929E015D
:102CA00010929D0188E190E090939C0180939B019C
:102CB00089E691E00E94A00D10929E0110929D0164
:102CC00082E290E090939C0180939B018FE691E0DB
:102CD0000E94A00D10929E0110929D01CFE2D0E0C3
:102CE000D0939C01C0939B0186E791E00E94A00DC8
:102CF0000CE010E010939E0100939D01D0939C0185
:102D0000C0939B0189E791E00E94A00D10929E0163
:102D100010929D01C9E3D0E0D0939C01C0939B0128
:102D20008EE791E00E94A00D10939E0100939D01FB
:102D3000D0939C01C0939B0181E891E00E94A00D7B
:102D400083E090E054CF0E94DE0C84E090E04FCF0F
:102D500084E68093D6011092D5011092D40110928E
:102D6000D3011092D2018FEF9FEF9093D101809306
:102D7000D001C6E0D0E18091D601882309F450C08B
:102D80000E944918A30192010E94B7186F5F7F4FFC
:102D90008F4F9F4F6093A3018091A3010E942D0D3F
:102DA000882371F33091A8012091A701C39FC0012E
:102DB000112487559E4FFC01E20FF11D8081A091E7
:102DC000A6019091A501CA9FD0011124A755BE4F1D
:102DD000A90FB11D8C93D0833093A6012093A50138
:102DE0000E94DE0C8091D60181508093D6010E9412
:102DF000A60A60939F017093A0018093A101909314
:102E0000A2014B015C012EE1820E911CA11CB11CA0
:102E10000E94A60A681579058A059B05C8F3ABCF01
:102E20008BE090E0E4CE80E80E94900BC82F80E415
:102E30000E94900B8111C2E080E10E94900B8111F1
:102E4000C3E080E20E94900B8111C4E088E00E9400
:102E5000900B8111C5E084E00E94900B8111C6E0C7
:102E60008091A4018C130AC01092CF018BE090E0F6
:102E70009093D8018093D701C0E006C0C093A4010D
:102E8000C093CF01CC2391F38FEF8C0F843018F4D3
:102E900087E090E0ACCE86E090E0C53009F4A7CEA4
:102EA000C63021F41092D8011092D70180E090E052
:102EB000892B09F43CCC0E94000036CC8090CD01D7
:102EC000882041F132E090E4992E00E0C1E18312C4
:102ED000C1E0D0E010E02090CE01D21508F540E12D
:102EE000D49F50011124A00EB11EC92CD12C312C1D
:102EF0002314A1F04C2FB501C6010E946907CF5FD2
:102F0000811003C0C93009F4C0E1339450E1C50E0B
:102F1000D11CEECF89E4982E08E0DACFDF5FDBCF5B
:102F20000E949B0B88E00E94900B882319F00E945E
:102F30002B0EF8CF0E94DE0CF092D801E092D70160
:102F4000B5CF8091CF010E942D0D882309F468CF61
:102F5000813009F0ABCF88E090E049CE9091A80194
:102F60008091A70126E0299FF0011124E755FE4F2B
:102F7000E80FF11D40813091A601A091A501239F8A
:102F80009001112427553E4FA20FB32FB11D4C9332
:102F900020E120839093A6018093A5010E94DE0C7E
:102FA0008091D4019091D50101969093D5018093A1
:102FB000D40189E090E01BCE9F5F99CC552309F4A2
:102FC0002FCF8AE090E013CE0E942B0E42E26FE2F8
:102FD00070E088E290E00E9469070E949B0B84E009
:102FE0000E94900B8823D9F384E00E94900B8111FA
:102FF000FBCF58CF0E942B0E9FCF8F929F92AF9204
:10300000BF92CF92DF92EF92FF92CF93DF93EC01CA
:10301000688179818A819B8161157105810591059E
:1030200021F464E279ED8BE597E02DE133EF41E0A7
:1030300050E00E94B71849015A019B01AC01A7EA70
:10304000B1E40E94D6186B017C01ACEEB4EFA5018F
:1030500094010E94E418C60ED71EE81EF91EF7FE62
:1030600006C081E0C81AD108E10880E8F80AC882E1
:10307000D982EA82FB82C701B6019F77DF91CF91A7
:10308000FF90EF90DF90CF90BF90AF909F908F9088
:1030900008958F929F92AF92BF92CF92DF92EF925C
:1030A000FF9260910C0170910D0180910E01909141
:1030B0000F01611571058105910521F464E279ED37
:1030C0008BE597E02DE133EF41E050E00E94B71827
:1030D00049015A019B01AC01A7EAB1E40E94D6184C
:1030E0006B017C01ACEEB4EFA50194010E94E418E1
:1030F000C60ED71EE81EF91EF7FE06C081E0C81AEC
:10310000D108E10880E8F80AC0920C01D0920D01C4
:10311000E0920E01F0920F01C701B6019F77FF9078
:10312000EF90DF90CF90BF90AF909F908F900895D9
:1031300060930C0170930D0180930E0190930F0129
:103140000895F999FECF92BD81BDF89A992780B56F
:103150000895262FF999FECF1FBA92BD81BD20BDDB
:103160000FB6F894FA9AF99A0FBE01960895052EB3
:1031700097FB1EF400940E94CE1857FD07D00E94C2
:10318000E91807FC03D04EF40C94CE1850954095E6
:10319000309521953F4F4F4F5F4F08959095809503
:1031A000709561957F4F8F4F9F4F08950E940B1927
:1031B000A59F900DB49F900DA49F800D911D11248B
:1031C0000895B7FF0C94D6180E94D618821B930B53
:1031D0000895A1E21A2EAA1BBB1BFD010DC0AA1F58
:1031E000BB1FEE1FFF1FA217B307E407F50720F070
:1031F000A21BB30BE40BF50B661F771F881F991FEB
:103200001A9469F760957095809590959B01AC0133
:10321000BD01CF010895A29FB001B39FC001A39F3C
:10322000700D811D1124911DB29F700D811D1124FF
:10323000911D089597FB072E16F4009407D077FD93
:1032400009D00E94341907FC05D03EF49095819571
:103250009F4F0895709561957F4F0895EE0FFF1F62
:103260000590F491E02D0994AA1BBB1B51E107C006
:10327000AA1FBB1FA617B70710F0A61BB70B881F06
:10328000991F5A95A9F780959095BC01CD01089595
:04329000F894FFCFE0
:10329400FFFFFFFF00E1000000000000010000004C
:1032A4000E335B00C180810000000000000089082B
:1032B400210AAA089F08F008AE08CC080000000004
:1032C400260B9C09900D8F0D0D0A002E30002E0048
:1032D400413A53656C6563740067616D6500423AF9
:1032E400436F646500436F64653A004672616E6BB8
:1032F4000076616E0056656E0054696D653A004D46
:103304006F7665733A00413A007669657700423A10
:06331400006D656E7500FE
:00000001FF
